:020000040800F2
:1000000050460020A9010008BD3B0008F92B00085C
:10001000ED300008D90D000875460008000000000A
:100020000000000000000000000000001D3F00086C
:100030008D0E000800000000793C0008E93F000830
:10004000C3010008C3010008C3010008C301000880
:10005000C3010008C3010008C3010008C301000870
:10006000C3010008C3010008C3010008C301000860
:10007000C3010008C3010008C3010008C301000850
:10008000C3010008C3010008C3010008000000000C
:10009000000000000000000000000000C301000894
:1000A000C3010008C3010008C3010008C301000820
:1000B00099400008C3010008C3010008C3010008FB
:1000C000C3010008C3010008C3010008C301000800
:1000D000C3010008DD4500085D460008000000007F
:1000E000C3010008C3010008C301000800000000AC
:1000F000000000000000000000000000C301000834
:1001000000000000C3010008C3010008C30100088B
:1001100000000000000000000000000000000000DF
:10012000C3010008C3010008DD0D0008C301000879
:10013000C3010008000000000000000000000000F3
:10014000000000000000000000000000C3010008E3
:10015000C3010008C3010008C30100086946000884
:10016000C3010008C30100080000000000000000F7
:10017000000000000000000000000000000000007F
:1001800000000000C30100080000000000000000A3
:10019000C3010008DFF80CD000F072FD00480047F2
:1001A000755700085046002006488047064800471B
:1001B000FEE7FEE7FEE7FEE7FEE7FEE7FEE7FEE717
:1001C000FEE7FEE789400008950100082DE9F05F91
:1001D0000546002092469B468846064681464024B6
:1001E0001BE0284641464746224600F0ACFB5346FA
:1001F0005A46C01A914110D311461846224600F0C3
:1002000093FB2D1A67EB01084F462246012000217F
:1002100000F08AFB17EB00094E41201EA4F10104F7
:10022000DFDC484631462A464346BDE8F09FA0F150
:100230004101192900D82030704740EA01039B078B
:1002400003D009E008C9121F08C0042AFAD203E04B
:1002500011F8013B00F8013B521EF9D27047D2B2AF
:1002600001E000F8012B491EFBD270470022F6E79F
:1002700010B513460A4604461946FFF7F0FF20461C
:1002800010BD421C10F8011B0029FBD1801A7047D9
:1002900010B5002200E0521C835C8C5CA34201D1AB
:1002A000002BF8D1D8B2E1B2401A10BD30B50546E6
:1002B0000020034600E05B1C934205D2EC5CC85C66
:1002C000201A01D1002CF6D130BD00002DE9FF4FDE
:1002D000087881B09946FF2805D0491C2D2804D004
:1002E0000024002308E000230BE00124F9E703EBDE
:1002F000830300EB4303491C0878FF28F7D104B1BE
:100300005B4200200090147801462D2C01D02B2C4C
:1003100004D1521C2D2C12D00024009400251678F4
:10032000FF2E0ED00A24A0FB04C801FB0481002785
:1003300000FB0711521C16EB0C006941EFE701248A
:10034000EBE7994450EA01020ED00024AA4D26465C
:10035000DFF8A88200F054FC82468B46B9F1000019
:1003600009DAC9F100071BE001980021C0E900117A
:1003700005B0BDE8F08F074612E0F80707D0224627
:100380002B463046414600F0E4F9064688462246B0
:100390002B461046194600F0DCF904460D467F1046
:1003A000002FEAD1B9F1000F324643465046594674
:1003B00002DA00F0B6FB01E000F0CBF9009A0AB1D6
:1003C00081F00041019AC2E90001D1E72DE9FF4F18
:1003D0001F468DB0D7E901464FF0FF382E20454625
:1003E0004FF000090B90B9696D1C0E988847396A67
:1003F000824688470028F6D1BAF1FF3F0AD024F49C
:10040000D064002E11DDBAF12B0F08D0BAF12D0FF8
:100410000BD102E0404611B0ABE744F48064B96907
:100420006D1C0E9888478246761E6946600501D588
:100430002D2000E02B208DF8000001F1010B0DF1C3
:10044000200809E0B9696D1C0E98884782460F980C
:1004500044F40074761E0560002E02DDBAF1300F00
:10046000F0D00B998A453ED144F0800406E00F9904
:10047000681CA9F1010944F400740860B9696D1C95
:10048000761E0E98884782463028F0D02BE00B99D4
:100490008A4505D1200603D444F08004761E18E076
:1004A000504604F083FC08B30DF11301761E44F4AA
:1004B00000748B4508D2AAF130000BF8010B20061E
:1004C00007D5A9F1010003E0200602D409F10100DB
:1004D0008146A00502D50F99681C0860B9696D1C9A
:1004E0000E9888478246002ED1DC53E0002E51DD65
:1004F000BAF1650F02D0BAF1450F4BD1A00549D52D
:10050000B9696D1C24F44074761E0E9888478246A3
:10051000002E0CDD2B2804D0BAF12D0F07D144F4A6
:100520008074B9696D1C0E9888478246761EE00576
:1005300001D52D2100E02B2108F8011BCDF82C80DE
:1005400021E00DF12901761E44F4007488450CD297
:10055000AAF1300010F0FF0088F8000002D10B99DA
:10056000884509D908F1010806E0E00501D52448CD
:1005700001E042F20F708146B9696D1C0E98884700
:1005800082460F980560002E04DD504604F00EFCF4
:100590000028D6D1F9690E988847FF208BF8000013
:1005A00088F800000020069007904B466A4608A98C
:1005B00006A8FFF78BFEA00502D46FF001002AE722
:1005C00014F0240F0AD0E00714D1DDE906123868D0
:1005D000031D3B600068C0E900120BE0DDE9060185
:1005E00000F032FB0146E00704D13868021D3A6092
:1005F0000068016028460EE7000024400000F03F3C
:10060000F1D8FFFF2DE9FE4F804681EA0300C00FBD
:100610000C46009021F0004123F00045B8EB0200A9
:10062000A94105D24046214690461C460B4602464B
:1006300023F00040104347D0270DC7F30A00C3F34F
:100640000A510290401A019040286BDAC3F313005C
:1006500040F4801B0098924620B10023D2EB030A9D
:1006600063EB0B0B01985946C0F14002504600F075
:100670005BF906460D4650465946019A00F073F95B
:1006800010EB08006141002487EA115284EAE77305
:100690001A4340D0009A62B3019A012A4FEA0752E6
:1006A00015DC001B61EB02014FF0004202EA075229
:1006B000CDE90042001C41F5801132462B4600F086
:1006C000E2F903B0BDE8F08F40462146F9E7001B90
:1006D00061EB0201001C41F5801300185B412018FA
:1006E000A2F5001747EB030140EAD570B6196D413A
:1006F00011E06D084FEA360645EAC0754FEA075229
:10070000001B61EB0201001C41F5801149084FEA12
:1007100030000019514132462B4603B0BDE8F04F7E
:1007200000F0A2B90098012240000023D0EB0202A1
:1007300063EBE073009821464FEAE074B8EB0000E9
:1007400061EB0401E9E783F000435BE781F00041DE
:1007500058E72DE9FE4F81EA030404F0004421F03C
:10076000004100944FF0000B23F0004350EA0104D5
:100770005ED052EA03045BD0C3F30A54C1F30A55B6
:100780002C44A4F2F3340194A0FB0254C1F31301EE
:1007900041F48011C3F3130343F4801301FB0244BB
:1007A00000FB034E840A970A44EA815447EA8357C0
:1007B000A4FB076802958D0A05FB07854FEA932C79
:1007C00004FB0C542705029D4FEA065847EA1637EA
:1007D000B5EB08056EEB070C870E920E47EA811702
:1007E00042EA8312A7FB0201B6EB0B0164EB0004A3
:1007F0002B0D43EA0C335E1844EB1C50DA4651468D
:10080000E7FB0201C5F313044FEA0B3343EA145329
:100810004FEA0432019C43EA0603A4F10C0402945B
:10082000009CCDE900B400F02EF903B0BDE8F08FD4
:1008300000200146F9E770B5C1F30A5201F0004506
:100840000024C1F3130140F2FF3341F480119A42B6
:1008500001DA002070BD40F233439A42A2F23342E3
:1008600003DC524200F06FF800E090402C43F1D0DE
:10087000404270BD00F0004230F000400AD0C10D8F
:1008800001F56071C0F3160042EA0151C208400749
:1008900011437047002001467047000030B5041E28
:1008A00071F1000404DB4FF00044404264EB0101AD
:1008B000141E73F1000405DB1C464FF00043524246
:1008C00063EB04038B4208BF824230BD30B5041E87
:1008D00071F1000404DB4FF00044404264EB01017D
:1008E000141E73F1000405DB1C464FF00043524216
:1008F00063EB0403994208BF904230BD30B50B460C
:10090000014600202022012409E021FA02F59D423F
:1009100005D303FA02F5491B04FA02F52844151E13
:10092000A2F10102F1DC30BD202A04DB203A00FAFA
:1009300002F1002070479140C2F1200320FA03F336
:10094000194390407047202A04DB203A21FA02F034
:100950000021704721FA02F3D040C2F120029140F9
:10096000084319467047202A06DBCB17203A41FA84
:1009700002F043EAE07306E041FA02F3D040C2F12C
:1009800020029140084319467047426842B101680D
:1009900011F8013B23B1521EC0E9001218467047FE
:1009A0000121C160881E704742685AB1C36801685E
:1009B00043B983688B4205D0491E521CC0E900121E
:1009C000002070474FF0FF30704700000FB4002345
:1009D00000B589B00CA900910B996FF00042CB6073
:1009E0001E4B06931E4B07930423CDE901321D4A8B
:1009F000089202466B460020FFF7E8FC09B05DF85C
:100A000014FB70B586B006464FF0FF300091CDE97B
:100A10000101002015460C4604903246694604A8A0
:100A2000FFF7D4FF02460498211825B108B1084603
:100A300000E020462860049800280DD0002A02DD3E
:100A40000098884208D0081B0094CDE90104324682
:100A5000694604A8FFF7BAFF06B070BD8B0900080D
:100A6000A9090008A50C000810B5141E73F10004B4
:100A700008DA401C41F1000192185B411A4301D190
:100A800020F0010010BD2DE9F04D92469B4611B1BA
:100A9000B1FA81F202E0B0FA80F220329046FFF71C
:100AA00043FF04460F4640EA0A0041EA0B01534661
:100AB0005A46084313D0114653EA010019D0C8F131
:100AC00040025046FFF73FFF05460E465046594646
:100AD0004246FFF729FF084305D0012004E02046E5
:100AE0003946BDE8F08D0020054346EAE0762C4308
:100AF00037430A986305E40AA0EB08000022FD0AC8
:100B000044EA47540A3002D500200146E9E70105CE
:100B100010196941DDE9084500196941BDE8F04D4A
:100B2000A2E72DE9F04D81EA030404F0004B21F027
:100B3000004514464FF0000A23F0004150EA050238
:100B400020D054EA01021DD0C5F30A570246C5F36E
:100B50001303C1F31300C1F30A5640F4801543F4A4
:100B60008013A7EB0608101BD64608F2FD3873EB7E
:100B7000050002D308F1010801E092185B41B8F1C9
:100B8000000F03DA00200146BDE8F08D00204FF48D
:100B90008011064684460EE0171B73EB050705D34C
:100BA000121B63EB050306434CEA010C49084FEAAC
:100BB000300092185B4150EA0107EDD152EA030080
:100BC00012D082EA040083EA0501084305D0101B15
:100BD000AB4106D20122002306E000224FF0004381
:100BE00002E06FF0010253101AEB06004CEB0851C3
:100BF00010EB0A0041EB0B01BDE8F04DFFF734BFED
:100C00000EB540F2334202920022CDE90022134693
:100C1000FFF739FF03B000BDC1F30A52C1F313015E
:100C200040F2FF3341F480119A4202DA002001467B
:100C3000704740F233439A42A2F2334202DC5242FE
:100C4000FFF781BEFFF770BE01F0004330B421F022
:100C5000004150EA010206D00A0DA2F56072C1F30C
:100C60001301002A02DC30BC00207047440F44EA24
:100C7000C104C100E01830BC00EBC25000F017B84E
:100C8000064C074D06E0E06840F0010394E80700D9
:100C900098471034AC42F6D3FFF780FAE86C0008AE
:100CA000086D0008C0B24FF4F05100F037B80029C9
:100CB000A8BF7047401C490008BF20F001007047E2
:100CC00010B4B0FA80FC00FA0CF050EA010404BF42
:100CD00010BC704749B1CCF1200421FA04F411FA98
:100CE0000CF118BF012121430843A3EB0C01CB1DDC
:100CF0004FEA00614FEA102042BF002010BC70474D
:100D000000EBC35010440029A4BF10BC7047401C26
:100D1000490008BF20F0010010BC70477F2801D9AE
:100D2000002208E0064A02EB5002C007127800D108
:100D3000120902F00F0201209040084070470000A5
:100D400064670008F0B50F49002201230020C2F1BA
:100D500004050EE051F8206001EB80046768BE4294
:100D600006DD51F82030666841F82060636000239A
:100D7000401C8542EEDC002B02D1521C042AE4DB2D
:100D8000F0BD0000381500202DE9F0410E465FEA65
:100D9000000809D046B100252C46FFF772FA074635
:100DA0003046FFF76EFA0BE0AFF3008018F805103D
:100DB000325D914201D1641C01E02D1B00246D1CA9
:100DC000BD4201DA8442F1DB844202DB281BBDE82C
:100DD000F0814FF0FF30FAE7FEE70000014800F035
:100DE00025BA0000EC15002001681823CAB2103A99
:100DF000B2FBF3F2054B6FF30901032A9B5CC36559
:100E000000D9091D81650846704700004467000845
:100E100010B5014600208B698A6A4FF0C07453B147
:100E2000B3F5005F15D072B1012A0CD0022A0AD0A6
:100E3000032A09D104E01AB1012A06D0022A03D1FB
:100E4000C96AC90100D5012010BDC96AA142FAD002
:100E500010BD002AF7D0012AF2D0022AF3D0032ACB
:100E6000F3D010BD30B50468256825F480252560D1
:100E7000046863608368402B036803D0996000684E
:100E8000C26030BD9A600068C16030BD704700002C
:100E9000F8B518A008250068174C4FF47A76009032
:100EA00015E0334604226946144801F04BFE3346F0
:100EB00002221149114801F0CDFD2078FA2802D113
:100EC000607812280BD014210B48FFF7CFF96D1E64
:100ED000E7D20BA003F0F8FD4FF0FF30F8BD14216E
:100EE0000548FFF7C3F9002DF3DB0BA003F0ECFD81
:100EF0000120F8BDFD0112FF22150020481100203D
:100F00004531382072657365742066616C6965646B
:100F1000202121210D0A00004531382072657365BA
:100F200074204F4B202121210D0A000072B6FEE7EC
:100F30002DE9F04108251C4C6E024FF47A771DE034
:100F40003346072219491A4801F0FCFD184801F000
:100F500048FB2128FAD03B4606221349144801F0E9
:100F600079FD2078FB2802D1607823280FD0142146
:100F70000D48FFF77BF90A2000F0CAFA6D1EDFD298
:100F80000CA003F0A1FD4FF0FF30BDE8F0816079C7
:100F9000217900EB012414210348FFF767F9002DA4
:100FA000EEDB2046F1E7000022150020340000208F
:100FB000481100206765742073686F72745F616404
:100FC00064726573732066616C69656420212121F8
:100FD0000D0A00002DE9FE4327A208240ECA8DE861
:100FE0000E0028494FF0FF3801EBC0012246264889
:100FF00003F0B6FB244A00206946135C0D18401C20
:10100000EB700828F9DB0E211F48FFF72FF91F4D61
:101010004FF480564FF4FA77641E1B4833460C2277
:101020006946AC3801F08EFD1748AC3801F0D9FAAA
:101030002128F9D015493B460422A1F2DA3001F00B
:1010400009FD2878FB280BD014211048FFF70EF972
:10105000641EE2D20EA003F037FD4046BDE8FE83D9
:10106000A878697800EB012514210848FFF7FEF8FD
:10107000002CEFDB2846F1E7FE091000000000001D
:10108000000000FFF80F0300F411002022150020DB
:101090006765742073686F72745F616464726573EE
:1010A000732066616C696564202121210D0A0000AE
:1010B0007CB51E481E4D046A2BE0611C1DA003F088
:1010C00003FD601CFFF786FF411C2AD0C11700EB0F
:1010D00011610A0A8DF804208DF80500611C01A831
:1010E00003F0E0FC03F07AFCE01704EB1060010A67
:1010F0008DF8001020468DF8010002220C21684670
:1011000003F00AFC03F056FC4FF4C87000F000FA3C
:10111000641CE8688442D0D3BDE87C400DA003F095
:10112000D3BC13A000680190D8E70000D0110020C4
:10113000240000206765742073686F72745F6164B7
:10114000647265737320204E6F2E25642E2E2E0D33
:101150000A00000067657420616C6C2041444452B1
:1011600020204F4B2020212121200D0A00000000CB
:10117000FFF900002DE9F0410446876D00F0D0FA38
:10118000064694F835000025022806D080206065C8
:1011900084F834500120BDE8F0812068016821F016
:1011A000160101602068416921F080014161206CD5
:1011B00008B9A06C20B12068016821F00801016025
:1011C0002068016821F0010101600CE000F0A8FA3C
:1011D000801B052807D920206065032084F835008E
:1011E00084F83450D7E720680068C007EED194F83F
:1011F0005C103F208840B860012084F8350084F8F6
:1012000034500020C7E790F83510022903D0802120
:10121000416501207047052180F83510006801689C
:1012200021F0010101600020704700002DE9F84322
:1012300004464FF00009CDF8009063484FF4165172
:10124000A56D0068B0FBF1F72E6894F85C100820DB
:1012500000FA01F131420FD021680A6852070BD51C
:101260000A6822F004020A6094F85C108840A860C2
:10127000606D40F00100606594F85C104FF001086B
:1012800008FA01F0304208D021684969090604D5FE
:10129000A860606D40F00200606594F85C10042066
:1012A0008840304208D021680968890704D5A860C1
:1012B000606D40F00400606594F85C101020884078
:1012C000304218D021680968090714D5A860206841
:1012D0000168490304D50068000308D5A16C07E044
:1012E0000168C90503D4016821F008010160216C7F
:1012F00009B12046884794F85C102020884030428D
:1013000031D021680968C9062DD5A86094F8350048
:1013100005282068016806D0490347D50068000306
:101320001DD4616C1CE021F0160101602068416948
:1013300021F080014161206C08B9A06C20B12068C7
:10134000016821F00801016094F85C103F2088409A
:10135000A86084F8358084F83490216D1FE0E16B3B
:1013600009B120468847606D00282BD0606DC0070A
:1013700014D0052084F835002068016821F00101AF
:1013800001600098401C0090B84203D820680068B3
:10139000C007F6D184F8358084F83490E16C0029D8
:1013A00010D001B02046BDE8F04308470168C905E8
:1013B000D5D4016821F01001016084F8358084F8EB
:1013C0003490CCE7BDE8F883480000202DE9F041D7
:1013D000044600F0A5F906465CB1022084F8350009
:1013E000002584F834502068016821F00101016073
:1013F0000DE00120BDE8F08100F092F9801B052886
:1014000005D920206065032084F83500F2E72068C4
:101410000068C007F0D12268116820480140D4E973
:1014200001031843D4E9033633431843636918436F
:10143000A3691843E3691843236A18430843616AA0
:10144000042903D1D4E90B13194308431060206821
:101450004069666A20F0070130460E4301270428E0
:101460000CD1A06A0643E06A40B12046FFF7D0FCE9
:1014700020B14020606584F83570BAE72068466185
:101480002046FFF7B1FC94F85C203F219140816039
:10149000656584F835700020ACE700003F8010F0EF
:1014A0002DE9F0410446866D90F8340000250128AE
:1014B0000DD0012084F8340094F835700020012FFD
:1014C00007D084F8340002252846BDE8F0810220C8
:1014D000FBE7022784F8357060652046FFF7C2FC01
:1014E00094F85C103F208840B0602068016841F0AB
:1014F00016010160206C20B12068016841F00801EC
:1015000001602068016841F001010160DCE7000032
:1015100070B5044600F004F90546601C02D004488A
:101520000078044400F0FCF8401BA042FAD370BDE0
:101530003C0000202DE9F84FDFF8B8A1002201247B
:101540000AF1040B03254FF00F090BF1040E00BF45
:101550000B6804FA02F63340B34273D10F7907F0F7
:101560000307012F01D0022F16D187684FEA4208E6
:1015700005FA08FC27EA0C07D1F80CC00CFA08FCA5
:101580004CEA070CC0F808C04768B7430E79C6F3A9
:10159000001696403E4346600E79F643B6070DD0DE
:1015A000C768560005FA06FC27EA0C07D1F808C000
:1015B0000CFA06FC4CEA070CC0F80CC00E7906F0D9
:1015C0000306022E10D1D60800EB8608D8F820605A
:1015D00057074FEAD76C09FA0CF7BE430F6907FAB1
:1015E0000CF73743C8F8207006684FEA420C05FA3A
:1015F0000CF7BE430F7907F0030707FA0CF73743E0
:1016000007604E6816F4403F6DD03B4E376847F494
:1016100080473760366822F0030706F4804600965C
:10162000364E07EB060CDCF8086897073F0F09FAFF
:1016300007F826EA0806DFF8C880404503D14FF0D6
:1016400000081EE04FE0DFF8BC80404502D14FF0BB
:10165000010816E0DFF8B080404502D14FF00208E3
:101660000FE0DFF8A880404502D14FF0030808E002
:10167000DFF89C80404502D14FF0040801E04FF0B4
:10168000070808FA07F848EA0608CCF80888DAF8E4
:1016900000605746D1F804C09E435FEACC3C00D5B9
:1016A0001E433E60DBF800605F46D1F804C09E43F5
:1016B0005FEA8C3C00D51E433E60DEF80060774652
:1016C000D1F804C09E435FEACC2C00D51E433E6097
:1016D000084F0C373E68D1F804C09E435FEA8C2C5B
:1016E00000D51E433E60521C102AFFF431AFBDE806
:1016F000F88F0000003C01404438024000300140B7
:10170000000002400004024000080240000C0240B9
:10171000001002400AB1816170470904FBE7000034
:1017200001488068704700003C00002070B504004C
:1017300011D021684CF6CC400860216845F2555024
:101740000860D4E9000141602168A0688860FFF763
:10175000E7FF05460DE0012070BD00BFFFF7E0FF89
:10176000401B312805D92068C068800701D00320BC
:1017700070BD2068C0688007F0D121684AF6AA20B1
:101780000860002070BD00684AF6AA2101600020B0
:1017900070470000024881680278114481607047F8
:1017A0003C0000200B4810B5016841F40071016055
:1017B000016841F480610160016841F48071016059
:1017C000032000F06FF80F2000F006F800F024F876
:1017D000002010BD003C024070B50D4D04464FF492
:1017E0007A712878B1FBF0F00A490968B1FBF0F092
:1017F00000F0A1FC48B9102C07D200222146501E4F
:1018000000F030F800206C6070BD012070BD000059
:101810003C000020480000200A4808B5016841F457
:1018200080410160006800F4804000900548001F7E
:10183000016841F080510160006800F08050009024
:1018400008BD000044380240002809DB00F01F02F8
:10185000012191404009800000F1E020C0F8001112
:1018600070470000F0B40E4B1B680C46C3F3022314
:10187000C3F10705042D00D90425191D072901D23C
:10188000002300E0DB1E012606FA05F1491E214077
:1018900099409E40761E16403143F0BC03F038B9A3
:1018A0000CED00E0064900F0070208684FF6FF0360
:1018B000184040EA0220034A1043086070470000C5
:1018C0000CED00E00000FA052DE9F0470E4605009A
:1018D00065D0DFF81481D8F80000F7B200F00700F7
:1018E000B04207D288F80070D8F8000000F0070076
:1018F000B04254D128683D4C810712D5400703D52A
:10190000206840F4E05020602878000703D5206864
:1019100040F4604020602068A96820F0F00008438F
:1019200020602878C0072DD0304968680839012820
:1019300012D0022813D0032811D009688907002982
:101940002DDA216821F0030101432160FFF7E8FE51
:10195000814641F2883A0EE009688903EFE7096899
:101960008901ECE7FFF7DCFEA0EB0901514502D944
:101970000320BDE8F0872068696800F00C00B0EB38
:10198000810FEFD1D8F80010404601F00701B142B5
:1019900007D90770006800F00700B04201D00120AD
:1019A000E7E72878400705D52068E96820F4E0508B
:1019B000084320602878000706D52068296920F4AC
:1019C000604040EAC100206000F038F82168084A11
:1019D000C1F30311515CC84006490860064800681D
:1019E000FFF7FAFE0020C4E7003C0240083802403E
:1019F0004C670008480000204000002004480549CA
:101A000000680968044AC1F38221515CC8407047EC
:101A100048000020083802405C6700080448054977
:101A200000680968044AC1F34231515CC8407047FC
:101A300048000020083802405C670008154810B5CF
:101A4000006810F00C02144813D01449042A0FD077
:101A5000082A0ED10F4C241F2268236802F03F028F
:101A60005B0207D52068C0F38810A0FB010106E0E7
:101A7000084610BD2168C1F38811A1FB00010023B5
:101A8000FEF7A4FB2168C1F30141491C4900B0FBEA
:101A9000F1F010BD083802400024F40040787D01C8
:101AA0002DE9F84F04006ED02078DFF84C93C00782
:101AB000A9F104054AD009F104000168C1F38101CC
:101AC000012908D00068C0F3810002280AD1D9F8A2
:101AD0000000400206D52868800337D560680028DA
:101AE000E1D033E06068B0F5803F10D0B0F5A02FB2
:101AF000286810D020F480302860286820F48020E6
:101B000028606068A8B1FFF70BFE06460DE0286864
:101B100040F48030F4E740F480202860F7E700BF0D
:101B2000FFF7FEFD801B642873D828688003F7D573
:101B30000CE0FFF7F5FD064605E000BFFFF7F0FDFE
:101B4000801B6428F0D828688003F7D42078DFF859
:101B5000AC8280074FF0000A3ED5A748001D0168FF
:101B600011F00C0F08D00068C0F3810002280BD1DF
:101B7000D9F80000400207D42868800716D5E0682D
:101B8000012800D112E033E1E068B8B10120C8F8C3
:101B90000000FFF7C5FD064605E000BFFFF7C0FDEA
:101BA000801B0228C0D828688007F7D528682169DB
:101BB00020F0F80040EAC10028600DE0C8F800A05D
:101BC000FFF7AEFD064604E0FFF7AAFD801B0228E2
:101BD0001FD828688007F7D42078000722D5864FC1
:101BE00087486169703771B101210160FFF798FD85
:101BF000064604E0FFF794FD801B022809D83868E8
:101C00008007F7D50EE0C0F800A0FFF789FD064673
:101C100005E082E0FFF784FD801B02287DD838684C
:101C20008007F7D42078400768D5DFF8CCB10027CB
:101C30000BF13C0BDBF80000C0000BD4DBF800100C
:101C400041F08051CBF80010DBF80000012700F0D4
:101C5000805000906B4E3068C00510D4306840F45E
:101C600080703060FFF75CFD009005E0FFF758FDE5
:101C70000099401A022850D83068C005F6D55E4E4B
:101C8000A0686C3601280FD00528306810D020F0ED
:101C900001003060306820F004003060A068B8B106
:101CA000FFF73EFD00900FE0306840F00100F4E7E0
:101CB00040F004003060F7E7FFF732FD0099411A69
:101CC00041F28830814266D830688007F4D50EE052
:101CD000FFF726FD009007E0FFF722FD0099411A6B
:101CE00041F28830814256D830688007F4D42FB151
:101CF000DBF8001021F08051CBF80010A069C8B3C8
:101D00003D49091D0968C1F3810102294AD0022811
:101D1000504607D0C8F8600000E03CE0FFF700FD47
:101D200004463BE04746C8F86000FFF7F9FC06466A
:101D300005E000BFFFF7F4FC801B02282BD82868C1
:101D40008001F7D4D4E907010843A16A2E4A490863
:101D500002EB0141626A41EA8211084394F82C10B7
:101D600040EA0161C9F8001001203866FFF7D8FC8D
:101D7000044606E03EE000BFFFF7D2FC001B02284D
:101D800009D828688001F7D534E000BFFFF7C8FC08
:101D9000001B022802D90320BDE8F88F28688001C3
:101DA000F4D427E00128F7D0D9F80000E26900F464
:101DB000800191421CD1226A00F03F01914217D16B
:101DC00047F6C071626A0140B1EB821F10D1A26A6E
:101DD0004FF0FF3300F4403103EB5202B1EB024FFE
:101DE00006D194F82C1000F07060B0EB016F01D0B8
:101DF0000120D1E70020CFE704380240000047422D
:101E0000800E4742007000400000FFFF70B50400E4
:101E100009D0606A002540B125616561A56294F82A
:101E2000510040B10CE0012070BD6068B0F5827FC8
:101E3000F4D0E561F2E784F85050204600F044F811
:101E4000022084F851002068016821F040010160FF
:101E5000A088218900F4827001F404410843A1891B
:101E600001F400610843217C01F002010843217D57
:101E700001F001010843218B01F400710843217F27
:101E800001F03801084394F8201001F08001084364
:101E9000218D01F40051084321680860A0690421E4
:101EA00001EA104094F8241001F010010843216861
:101EB00048602068C16921F40061C1616565012045
:101EC00084F85100002070BD70B586B0044614211E
:101ED0006846FEF7CBF91B49206888422FD11A4883
:101EE0000025016841F480510160006800F48050D1
:101EF000059015481438016841F00101016001683E
:101F000001F001010591016841F0020101600068E2
:101F1000022400F002000590A0208DE83100052683
:101F2000CDE9034669460948FFF704FB10208DE818
:101F30003100CDE9034669460548FFF7FBFA06B0D4
:101F400070BD0000003001404438024000000240F3
:101F5000000402402DE9F84F044690F85000002795
:101F60000A9E1D4692468B464FF0010901280ED06D
:101F7000012084F85000FFF7D3FB804694F851000D
:101F8000616801280CD0B1F5827F07D102E0022000
:101F9000BDE8F88FA16809B9042801D00227C2E082
:101FA000BBF1000F27D0BAF1000F24D01DB394F875
:101FB0005100042802D0052084F8510000206065FB
:101FC000C4F838A0E587A587C4F830B0E586A586B3
:101FD0002064606420680168490603D4016841F008
:101FE00040010160E068B0F5006F606805D0E8B3BB
:101FF000012D46D07FE0012795E008B1012D39D1B0
:10200000206B21680088C860206B801C2063E08EF4
:10201000401EE0862EE02068816889070FD5E18E9A
:1020200069B1B9F1010F0AD1216B0988C160206B38
:10203000801C2063E08E401EE0864FF0000920687F
:102040008168C9070CD0E18F51B1C068A16B0880CD
:10205000A06B801CA063E08F401EE0874FF0010959
:10206000FFF75EFBA0EB0800B04200E009E001D3FF
:10207000701C50D1E08E0028CDD1E08F0028CAD14D
:102080003FE0206B216800780873206B401C2063C0
:10209000E08E401EE0862EE02068816889070FD51B
:1020A000E18E69B1B9F1010F0AD1216B0978017391
:1020B000206B401C2063E08E401EE0864FF000093C
:1020C00020688168C9070CD0E18F51B1C068A16B4D
:1020D0000870A06B401CA063E08F401EE0874FF0AB
:1020E0000109FFF71DFBA0EB0800B04202D3701CF2
:1020F00001D010E07EB1E08E0028CDD1E08F002825
:10210000CAD142463146204601F080FE28B101275F
:102110002020606507E0032705E0A06818B9206863
:10212000C16880680090012084F85100002084F884
:10213000500038462CE710B5401EB0F1807F01D327
:10214000012010BD4FF0E02460610F21601702F004
:10215000DFFC0020A06107202061002010BD704737
:102160007047000070B590F83C20012A2CD0012463
:1021700080F83C40022280F83D2003685A689D6840
:1021800022F070060A6832435A60104B02689A4285
:102190000ED0B2F1804F0BD00D4B9A4208D00D4BB0
:1021A0009A4205D00C4B9A4202D00C4B9A4204D171
:1021B000496825F080031943916080F83D40002173
:1021C00080F83C10084670BD022070BD0000014040
:1021D0000004004000080040000C004000400140A6
:1021E00010B5040003D094F83D0010B107E00120C1
:1021F00010BD002084F83C00204600F01FF80220AB
:1022000084F83D00211D206801F04CFF012084F876
:10221000460084F83E0084F83F0084F8400084F8CB
:10222000410084F8420084F8430084F8440084F8B4
:10223000450084F83D00002010BD000008B500688E
:10224000B0F1804F12D10A48016841F001010160EC
:102250000068002200F00100009011461C20FFF7EA
:1022600001FBBDE808401C20FFF7EEBA08BD0000E6
:102270004038024090F83D10012901D001207047FC
:10228000022180F83D100168CA6842F00102CA606C
:1022900000680E4988420ED0B0F1804F0BD00C4937
:1022A000884208D00B49884205D00B49884202D0A9
:1022B0000A49884204D1816801F00701062903D048
:1022C000016841F0010101600020704700000140F9
:1022D0000004004000080040000C004000400140A5
:1022E00070B5044690F83C000025012817D001265F
:1022F00084F83C60022084F83D002068826822F067
:10230000770222F47F4282600868502838D00DDCC2
:1023100020284FD005DC90B3102811D14AE00220CC
:1023200070BD302846D040280AD13BE060282FD02D
:1023300070280DD0B0F5805F03D0B0F5005F12D0EB
:10234000012584F83D60002084F83C00284670BDDB
:10235000CB68D1E90121206801F0F0FE2068816896
:1023600041F0770109E0CB68D1E90121206801F053
:10237000E5FE2068816841F480418160E1E719E071
:10238000CA684968206801F0EBFE5021206806E029
:10239000CA684968206801F0F4FE6021206801F0F5
:1023A000D7FECEE7CA684968206801F0D9FE40210F
:1023B0002068F4E7226801461046F0E7704770B5E0
:1023C0000446006801694FF00005C943890715D428
:1023D000C168C943890711D4E91E01610120207732
:1023E000206880698007204602D0FFF7E7FF04E0FD
:1023F00000F098F8204600F096F8257720680169EB
:10240000C943490717D4C168C943490713D46FF0BA
:1024100004010161022020772068806910F4407F68
:10242000204602D0FFF7CAFF04E000F07BF8204608
:1024300000F079F8257720680169C943090716D4A7
:10244000C168C943090712D46FF008010161042073
:1024500020772068C0698007204602D0FFF7AEFFD2
:1024600004E000F05FF8204600F05DF82577206872
:102470000169C943C90617D4C168C943C90613D441
:102480006FF010010161082020772068C06910F406
:10249000407F204602D0FFF791FF04E000F042F8B1
:1024A000204600F040F8257720680169C943C90734
:1024B00008D1C168C943C90704D1891E01612046FA
:1024C00000F032F820680169C943090609D4C168DF
:1024D000C943090605D46FF0800101612046FFF76A
:1024E0003EFE20680169C943490609D4C168C94351
:1024F000490605D46FF040010161204600F036F82E
:1025000020680169C94389060BD4C168C94389069B
:1025100007D46FF0200101612046BDE87040FFF74D
:102520001FBE70BD7047704710B50D49006809683F
:10253000884212D10A486438FFF725F9094C0A4845
:102540004FF4005162780AB1002200E00122FFF747
:10255000E1F8607810B10020607010BD0120FBE749
:10256000BC10002024000020000802407047704783
:1025700010B504460068406994F83D10C0F3C010DF
:10258000212911D180B12068143050E8001F21F0BA
:10259000800140E80012002AF5D1606B08B1FEF717
:1025A000E9FD204601F0A1FE2068406994F83E1044
:1025B000C0F38010222911D180B12068143050E876
:1025C000001F21F0400140E80012002AF5D1A06B65
:1025D00008B1FEF7CFFD204601F060FE002010BDDF
:1025E000704710F83D1F407808437047F8B5016800
:1025F00004460868CA684B6910F00F0F4FF00005D9
:1026000059D003F0010602F49077374365D0C10733
:1026100005D0D10503D5216C41F0010121644107AA
:1026200005D5D90703D0216C41F00201216481074F
:1026300005D5D90703D0216C41F0040121640107BD
:1026400007D502F02001314303D0216C41F008018D
:102650002164216C00293AD0800604D5900602D569
:10266000204601F050FE20684069216CC0F38010C4
:10267000090700D460B3204601F010FE20684069CD
:10268000400621D52068143050E8001F21F0400199
:1026900040E80012002AF5D1A06BA8B16C49016591
:1026A000A06BFEF7B0FD002811D0A06B016D01B04A
:1026B000BDE8F040084783060FD593060DD52046A8
:1026C000BDE8F84001F01FBE2046FFF789FFF8BDC6
:1026D0002046FFF785FF2564F8BD266B2023012ED9
:1026E00079D1C60677D5D60675D5086848680090B2
:1026F0004869400640D5A16B086840680004000C9A
:10270000EAD0A28D8242E7D9E085C869B0F5807F22
:102710002DD020680C3050E8001F21F4807140E873
:102720000012002AF5D12068143050E8001F21F073
:10273000010140E80012002AF5D12068143050E869
:10274000001F21F0400140E80012002AF5D184F872
:102750003E30256320680C3050E8001F21F0100146
:1027600040E80012002AF5D1A06BFEF703FDA08D12
:10277000E18D401A81B229E0A08DE18D401A81B22D
:10278000E08D0028A8D00029A6D020680C3050E8A1
:10279000002F22F4907240E80026002EF5D1206828
:1027A000143050E8002F22F0010240E80026002EED
:1027B000F5D184F83E30256320680C3050E8002FB6
:1027C00022F0100240E80023002BF5D12046FFF74D
:1027D000CEFEF8BDFFE705062BD5150629D594F8E2
:1027E0003D002128F5D1A068B0F5805F01D12069B6
:1027F000B0B1206A411C2162216800784860E08CF9
:10280000401E0004000CE084E3D12068C16821F080
:102810008001C1602068C16841F04001C160D8E713
:10282000206A0088C0F308004860206A801C20628B
:10283000E5E74006CDD55006CBD5CA68204622F044
:102840004002CA6084F83D3000F0D5F9C1E70000CD
:10285000A741000870B5040004D094F83D0000259D
:1028600010B106E0012070BD84F83C50204600F015
:1028700023F8242084F83D002068C16821F4005129
:10288000C160204601F0A0FD2068016921F490415B
:1028900001612068416921F02A0141612068C16815
:1028A00041F40051C1602564202084F83D0084F883
:1028B0003E00002070BD00002DE9F04786B0804644
:1028C00014216846FDF7D2FC5C485B4BD8F8002029
:1028D00000245A49143802260727DFF8649101259D
:1028E0009A4244D10A6842F010020A60096801F075
:1028F00010010591016841F0010101600068BA46CC
:1029000000F00100059058150090CDE90164CDE973
:10291000034769464846FEF70DFEAF02CDE9025473
:10292000CDE9007669464846CDF810A0FEF702FED4
:10293000454D44482860B006C5E90104C5E9034790
:10294000C0146C61C5E906402C6228466C62FEF733
:102950003DFD08B1FEF7EAFAC8F8385000221146EA
:102960002520C5F83880FEF77DFF252030E0374B65
:102970004FF008089A4230D13049091F0A6842F4E2
:1029800000320A60096801F400310591016841F0E4
:1029900001010160006802AA00F001000590042016
:1029A000CDE9000682E8B00069464846FEF7C2FD60
:1029B000CDF80080CDE90165CDE903576946484669
:1029C000FEF7B8FD002211462620FEF74BFF262019
:1029D000FEF73AFF06B0BDE8F0871D4B9A42F9D1E9
:1029E0000A6842F020020A60096801F0200105919E
:1029F000016841F001010160006802AA00F00100D5
:102A00000590D814CDE9000682E8300169464846B1
:102A1000FEF790FD4FF480500090CDE90165CDE9BF
:102A2000035869464846FEF785FD002211464720B7
:102A3000FEF718FF4720CBE7001001404438024062
:102A40000000024040640240EC15002000440040B9
:102A5000001401402DE9F84F044690F83E009A46D4
:102A600016460D46202853D1FDB1F6B194F83C002E
:102A700001284DD0012084F83C0000272764222043
:102A800084F83E002763FEF74BFEA6858146E68567
:102A9000A0684FF48058404501D1206940B12E46CE
:102AA0005FF0000584F83C7027E00120BDE8F88F56
:102AB0000026F7E74B46002220212046CDF800A053
:102AC00001F050FD08B10320F0E726B1A0684045B1
:102AD0001BD038B108E020684068C0F3080025F832
:102AE000020B07E0206980B12068406800F07F0099
:102AF00006F8010BE08D401EE085E08D0028D9D15D
:102B0000202084F83E000020D0E720684068EFE7EE
:102B10000220CBE790F83E30202B0ED159B152B1B4
:102B200090F83C30012B08D0012380F83C30002382
:102B3000036301F0CFBC012070470220704770474B
:102B4000704700002DE9F843044690F83D001F4609
:102B500016460D4620284CD1C5B1BEB194F83C00B4
:102B6000012846D0012084F83C004FF00008C4F84A
:102B70004080212084F83D00FEF7D2FDA6848146E6
:102B8000E684A068B0F5805F03D004E00120BDE8D2
:102B9000F883206928B12E465FF0000584F83C8058
:102BA0000EE00026FAE78021204601F0DBFCA0B908
:102BB000AEB116F8010B21684860E08C401EE0843D
:102BC000E08C4B464FF0000200970028EBD14FF00D
:102BD0004001204601F0C6FC30B10320D7E735F8AC
:102BE000020BC0F30800E6E7202084F83D00002037
:102BF000CDE70220CBE77047FEE700002DE9F0416A
:102C000086B014216846FDF731FB2A48002401688C
:102C100041F004010160016801F0040105910168BF
:102C200041F080010160016801F0800105910168B7
:102C300041F001010160016801F0010105910168A5
:102C400041F0020101600068012200F002001A4E0A
:102C50005503059029463046FEF75CFD174F0122CB
:102C600010213846FEF756FDDFF85480002240213F
:102C70004046FEF74FFD00950125CDE90154694618
:102C800030460394FEF756FC1020CDE900050220E3
:102C9000CDE9025069463846FEF74CFC40200090D2
:102CA000CDE90154694640460394FEF743FC06B063
:102CB000BDE8F081303802400008024000000240C8
:102CC000000402400F4810B50D4901604FF48271B5
:102CD0004160002102228160C0E9031201224261A9
:102CE000520282611022C0E90721416281620A21F9
:102CF000C162FFF78BF8002801D072B6FEE710BD65
:102D0000003001406410002010B586B00024174840
:102D1000009401940294039404944FF0804105942C
:102D2000016042F2CF01C0E9011440F2E731C0E98D
:102D3000031480218161FFF753FA08B172B6FEE7F0
:102D40004FF48050009069460848FFF7C9FA08B16F
:102D500072B6FEE7049404A904480594FFF702FA4A
:102D6000002801D072B6FEE706B010BDBC100020EE
:102D70002DE9F047DFF8A482A74DC4B0B8F80210DF
:102D8000002628466E54A8F80260A5A1FDF7FCFFB6
:102D90000446401C7DD0A71E04E0391BE85D294491
:102DA0007F1C88709C48FDF76CFAB842F5D89A48A9
:102DB000FDF767FA041BA41C01E02E55641C96481D
:102DC000FDF75FFAA042F8D87B2028709248FDF703
:102DD00058FA044694A19048FDF7D6FF0146401EDC
:102DE00001E02E54401CA042FBDB29447D2001F869
:102DF000020C8948FDF745FA874982B240F6B8339C
:102E0000A1F20620FFF79EFE8948FFF7EAFB212882
:102E1000FAD0814802F0B8FB07007DD080A102F013
:102E2000A5FB824683A001F04FFE4FF0FF3586A13F
:102E30007948FDF7A9FF401C04D083A1504602F059
:102E400095FB456983A17448FDF79EFF784C443497
:102E5000401C05D07FA1504602F088FB4069A0616C
:102E600080A16D48FDF790FF401C05D07DA1504624
:102E700002F07CFB406920607DA16748FDF784FF7C
:102E8000401C05D07AA1504602F070FB4069E0601A
:102E900000E0BEE07AA16048FDF776FF401C05D057
:102EA00077A1504602F062FB4069206178A15A4840
:102EB000FDF76AFF401C7DD075A1504602F056FB1D
:102EC00040696061D4E903120091CDE901207449A1
:102ED00003A82368A26901F007FE03A8FDF7D1F952
:102EE00082B253484FF6FF76334603A98838FFF77E
:102EF00029FE4F488838FFF774FB2128F9D04FF49A
:102F00007A794B46162267A14948FFF71BFE002D30
:102F10006CDBD8F80C0000E073E0854266D82A46E6
:102F200066A103A801F0E0FD03A93B48FDF72CFFD3
:102F3000401C05D003A9504602F018FB4069A06070
:102F4000012D64D0284600F0BFFE0146A06800F0C5
:102F5000E7FF401C1CD000952A465A4903A8A368E5
:102F600001F0C2FD03A8FDF78CF982B23048334668
:102F700003A98838FFF7E6FD2D488838FFF731FBB5
:102F80002128F9D04B46162246A12948FFF7DAFD41
:102F90004DA12148FDF7F8FE401C09D04AA150463A
:102FA00002F0E4FA40692946606000F067FE606064
:102FB0002B4600E029E0464903A8626801F094FD31
:102FC00003A8FDF75EF982B21948334603A9883891
:102FD000FFF7B8FD16488838FFF703FB2128F9D022
:102FE0004B4616222FA11248FFF7ACFD384602F0DF
:102FF00099FA44B04FF4C871BDE8F0470648FDF7B0
:1030000035B934A001F060FDF0E760695AE7314658
:103010009CE744B0BDE8F087921300202400002014
:10302000706172616D73000076657273696F6E0016
:103030008C1100200A4A534F4E2050617273652054
:103040004F4B2E2E2E0A000053657269616C5F4E45
:10305000756D00006175746F5F636F6E74726F6C75
:10306000000000007265706F72745F6461746100CB
:103070004D41585F4D6F69737475726500000000B3
:103080004D696E5F4D6F6973747572650000000065
:10309000696E74657276616C5F74696D65000000BD
:1030A000046800087075626C69736820746F7069D9
:1030B00063204F4B2E2E2E2E0D0A000053562564F2
:1030C00000000000F468000850756D7000000000FA
:1030D000846900080A4A534F4E205061727365207C
:1030E0006661696C65642E2E2E0A0000FEE7000002
:1030F0002DE9F04FDFF80C944FF6F9762DED028BA9
:10310000ADF2C44DD9F81C40200000F10104FE4F7F
:103110001BD0204600F0D8FD0546B04217D120460E
:10312000FDF758FF411C7CD0C11700EB11610A0A62
:10313000FA703871F8788DF8000038798DF8010050
:103140002146684601F0AEFC08E04FF6FF75E8172F
:1031500005EB1060010AF97028463871DFF8AC837E
:10316000002600BFFDF7E4FE48F82600761C052E79
:10317000F8DBFDF7E7FDD8F804104046D8F8082042
:103180001144D8F80C201144032291FBF2F100EE17
:10319000101AB8EEC00ADFEDDE0A30EEC00ADFED2D
:1031A000DD0A70EE600A9FEDDC0A60EE800A9FED9A
:1031B000DB1ADB4A80EE818A18EE101A914201DD9B
:1031C000B0EE408AB5EEC08AF1EE10FA01D29FED62
:1031D000D58A06681421CD48FDF748F8761C6AD0D8
:1031E000D9F818004E46E8B396ED030AC74FDFF84A
:1031F00018B3F8EEC00A14374FF07D0A4FF00008FC
:10320000F4EEC80AABF1100BF1EE10FA08D3D6EDCC
:10321000040AF8EEE00AF4EEC80AF1EE10FA7CDDDA
:1032200000E05DE0B8EEC00AB4EEC80AF1EE10FAB4
:103230000CD2C6F8088040462946C6F8048000F043
:103240006FFE2146706800F019FD706096ED040A6B
:10325000B8EEC00AB4EEC80AF1EE10FA0CDD012097
:10326000B06000E027E02946706000F059FE21467A
:10327000706800F003FD70603068012830D171691A
:103280000A2933DD18EE100AFDF7F4FAD6E9012316
:10329000CDE90432CDE90001029403942246A2490B
:1032A00006A801F021FC06A8FCF7EBFF82B241F270
:1032B000883306A9C9E02046FDF78CFE411C0FD0DB
:1032C000C11700EB11610A0AFA703871F8788DF8AD
:1032D000000038798DF801002146684601F0E2FBD4
:1032E0000DF2C44DBDEC028BBDE8F08F00EE104A2C
:1032F000DBF80820B946B8EEC00A5C4607EB0212BC
:1033000002ED040ADBF8082007EB021202ED038A43
:1033100096ED020AB8EEC00A00E07EE0DBF8082075
:1033200007EB021202ED020A96ED010ADBF8082013
:10333000B8EEC00A09EB02100A2700ED010A97FB5C
:10334000F1F0A16891FBF0F200FB121000285ED1B1
:103350004FF48062754904A8FCF76FFF0020054612
:10336000B346CDF8A80428E009EB05167068FDF710
:1033700081FA96ED020AFDEEC00A96ED000ABDEE56
:10338000C00A8DED020ACDED030ACDE9000110EE71
:10339000102A67A10DF5826001F0A6FB04AA0DF5C5
:1033A00082636EA1104601F09FFBF068B0F17E5F72
:1033B00002D10120CDF8A8046D1CDBF8140097FBA6
:1033C000F0F0A842D0DC67A10DF2AC40DDF8A824F3
:1033D00001F08AFB04AA0DF2AC4360A1104601F093
:1033E00083FB04A8FCF74DFF04AA222102F800A0E9
:1033F000104480F801A081700D21C1700771104642
:10340000FCF73FFF82B241F2883304A9D8E0A068FC
:10341000401CA0600DF2C44D64E730680128F9D16A
:1034200070690A281BDD18EE100AFDF723FACDE9B2
:1034300000012246504902A801F056FB02A8FCF701
:1034400020FF82B241F2883302A92E48CC38FFF720
:1034500079FB4AA001F038FB0DF2C44D42E700EEC3
:10346000104ADBF808105C46B8EEC00A07EB011101
:1034700001ED040ADBF808100A2696FBF0F007EBD2
:10348000011101ED038ADBF8081091FBF0F200FB5B
:1034900012100028BBD14FF480623E4902A8FCF70D
:1034A000CCFE0025BB4619E00BEB05177868FDF74D
:1034B000E1F9CDE9000197ED000A37A10DF5816032
:1034C000BDEEC00A10EE102A01F00EFB02AA0DF5A7
:1034D000816322A1104601F007FB6D1CD9F814008E
:1034E00096FBF0F0A842DFDC02A8FCF7CAFE02AAB5
:1034F000222102F800A0104480F801A081700D2163
:10350000C17055E0D0110020340000203815002093
:1035100000404E4500C0D9440000C84200C05D4490
:103520000000C84200000000146A0008445F000860
:1035300022534D2564223A7B2276616C7565223ACE
:10354000252E31667D2C2253562564223A7B227625
:10355000616C7565223A25647D2C00002573257306
:10356000000000002250756D70223A7B2276616C5B
:103570007565223A25647D00D46B00087075626C15
:1035800069736820746F706963204F4B2E2E2E2E46
:103590000D0A00004463000822534D2564223A7B43
:1035A0002276616C7565223A252E31667D2C0000ED
:1035B00006711046FCF765FE82B241F2883302A91B
:1035C0000448FFF7BFFAAFF24C0001F07DFAC4F8EF
:1035D00008801CE704110020F0B5ADF5057DFBA0C7
:1035E00001F072FAFEA001F06FFA4FF6FF754FF48A
:1035F0007A744FF4C8762B460622FBA1FC48FFF7ED
:10360000A1FAFB4923460622FE31F948FFF722FAC8
:10361000F748F8A1FE30FDF7B7FB401CF4483146EF
:1036200000F1FE0005D0FCF721FEF3A001F04CFAFA
:1036300005E0FCF71BFEC820FDF76AFFDBE72B4621
:103640000422EFA1EA48FFF77DFAE9492346062262
:10365000FE31E748FFF7FEF9E548E6A1FE30FDF749
:1036600093FB401CE248314600F1FE0005D0FCF718
:10367000FDFDE5A001F028FA05E0FCF7F7FDC82004
:10368000FDF746FFDBE72B460C22E1A1D848FFF708
:1036900059FAD74923464022FE31D548FFF7DAF9D7
:1036A000D348D4A1FE30FDF76FFB401C0DD0D049AC
:1036B000DBA0FE3101F008FACD483146FE30FCF7C0
:1036C000D5FDD9A001F000FA08E0C9483146FE3026
:1036D000FCF7CCFDC820FDF71BFFD4E72B460B22DF
:1036E000D3A1C348FFF72EFAC14923460622FE3173
:1036F000BF48FFF7AFF9BE48BEA1FE30FDF744FB5F
:10370000401CBB48314600F1FE0005D0FCF7AEFD81
:10371000CAA001F0D9F905E0FCF7A8FDC820FDF723
:10372000F7FEDBE72B460C22C6A1B148FFF70AFAE9
:10373000AF4923460622FE31AD48FFF78BF9AC486E
:10374000ACA1FE30FDF720FB401CA948314600F13A
:10375000FE0007D0FCF78AFDBEA001F0B5F92F46A8
:10376000254605E0FCF782FDC820FDF7D1FED9E72C
:103770003C463B460822B9A19D48FFF7E3F99C4926
:103780002B464022FE319A48FFF764F9984899A1E8
:10379000FE30FDF7F9FA401C0DD09549A0A0FE318E
:1037A00001F092F992483146FE30FCF75FFDAEA081
:1037B00001F08AF908E08E483146FE30FCF756FDEC
:1037C000C820FDF7A5FED3E723461722A8A1884805
:1037D000FFF7B8F986492B460622FE318448FFF7E9
:1037E00039F9834883A1FE30FDF7CEFA401C0BD097
:1037F0007F4837463146FE30FCF738FDA2A001F085
:1038000063F92E463D4608E079483146FE30FCF724
:103810002DFDC820FDF77CFED6E7234640229CA163
:103820007348FFF78FF9724933460622FE3170481C
:10383000FFF710F96E486FA1FE30FDF7A5FA401CA6
:103840000BD06B482F462946FE30FCF70FFD98A0A1
:1038500001F03AF935463E4608E065482946FE3013
:10386000FCF704FDC820FDF753FED6E723461B22D4
:1038700091A15F48FFF766F95D492B460622FE31AC
:103880005B48FFF7E7F85A485AA1FE30FDF77CFA8B
:10389000401C0BD0564837463146FE30FCF7E6FC5C
:1038A0008CA001F011F92E463D4608E05048314603
:1038B000FE30FCF7DBFCC820FDF72AFED6E72346E6
:1038C0005C2286494A48FFF73DF9494933460622BA
:1038D000FE314748FFF7BEF8454846A1FE30FDF7E8
:1038E00053FA401C4248294600F1FE0005D0FCF77F
:1038F000BDFC7BA001F0E8F805E0FCF7B7FCC820B0
:10390000FDF706FEDBE72346482278493848FFF7F3
:1039100019F9374933464022FE313548FFF79AF806
:10392000334834A1FE30FDF72FFA401C30482946B9
:1039300000F1FE0005D0FCF799FC6DA001F0C4F881
:1039400005E0FCF793FCC820FDF7E2FDDBE723462A
:1039500017226AA12648FFF7F5F825493346402289
:10396000FE312348FFF776F8214822A1FE30FDF70B
:103970000BFA401C1E48294600F1FE0005D0FCF75A
:1039800075FC64A001F0A0F805E0FCF76FFCC8200E
:10399000FDF7BEFDDBE72346512261491448FFF7DE
:1039A000D1F8134933464022FE311148FFF752F84F
:1039B0000F4810A1FE30FDF7E7F9401C0C482946DE
:1039C00000F1FE0000D0ADE0D5E000004E422D49F0
:1039D0006F5420696E6974202E2E2E2E2E0D0A0033
:1039E00073747065300D0A00415445300D0A0000B3
:1039F000041100204F4B000073747065310D0A00F4
:103A000041540D0A0000000073747065320D0A0005
:103A100041542B454349434349440D0A00000000EB
:103A200025730D0A0000000073747065330D0A00E1
:103A300041542B4346554E3D310D0A007374706559
:103A4000340D0A0041542B43474154543D310D0A73
:103A50000000000073747065350D0A0041542B435B
:103A600053510D0A0000000073747065360D0A0092
:103A700041542B434744434F4E543D312C49502C25
:103A8000434D4E45540D0A0073747065370D0A009E
:103A900041542B45434D544346473D226B65657069
:103AA000616C697665222C302C36300D0A000000DE
:103AB00073747065380D0A0041542B45434D5443CF
:103AC00046473D22636C6F7564222C302C322C31BA
:103AD0000D0A000073747065390D0A00A4670008B0
:103AE0007374706531300D0A00000000A06C00088E
:103AF0007374706531310D0A0000000041542B458C
:103B0000434D54434F4E4E3D302C223132333435E9
:103B1000220D0A007374706531320D0A0000000036
:103B20004C6C0008FCF7A2FB16A000F0CDFF1B4870
:103B3000D0E90423C16844688DE81E0003688269E7
:103B4000174904A800F0D0FF04A8FCF79AFB82B242
:103B5000124841F2883304A9CC38FEF7F3FF0F482E
:103B6000CC38FEF73EFD2128F9D00EA000F0ACFFC6
:103B70000DF5057DF0BDFCF779FBC820FDF7C8FC0D
:103B800009E700004E422D496F5420496E697420A8
:103B90004F4B2E2E2E2E2E0D0A000000D01100208D
:103BA000D06A00087075626C69736820746F706900
:103BB00063204F4B2E2E2E2E0D0A0000FEE7000034
:103BC00010B50E220021264800F0CAFD244800222C
:103BD000A0F124018378FF2B02D1C478FF2C1DD0E3
:103BE00004788C6144780C60C47804EB03234B6147
:103BF0004379047903EB0423CB60C379847903EB25
:103C000004230B614A60437A8B60C37A847A03EBA6
:103C10000423CB61037BFF2B10D012E001208861CD
:103C20000860642048615A20C8604A608A60CA619E
:103C300032200A62086100F08FF809E0447BFF2C13
:103C40000CD0407B00EB0320086206A000F03CFF94
:103C5000BDE810400E210248FCF708BB0A62F4E7F9
:103C6000F41100207265616420506172616D7320EF
:103C70004F4B2E2E2E2E0A007047000070B50546C1
:103C800000F0A8F80E480F4E806910B101280FD03F
:103C90000CE0012D01D01DB108E00124224601E015
:103CA0000024224610213046FDF734FD204670BD29
:103CB00000F022F80128F0D0401CF1D0F6E7000017
:103CC000D011002000000240094910B501EBC001ED
:103CD0000222084800F044FD06484178007801EBD4
:103CE00000240E210348FCF7C1FA204610BD000055
:103CF000F80F0100F411002038B50AA00024006874
:103D00000090012204F58051684600F029FD9DF8DD
:103D1000000028B1641C032CF3DB4FF0FF3038BDEA
:103D2000012038BDFF00000008B500F057FE09482B
:103D3000C069C11700EB11610A0A8DF800208DF8E7
:103D4000010002220A21684600F0E6FD00F032FE82
:103D500008BD0000D01100200EB51D48017E8DF871
:103D6000001001788DF801104169CA1701EB126249
:103D7000130A8DF802308DF80310C168CA1701EBE1
:103D80001262130A8DF804308DF80510016940F2B3
:103D9000091291FBF2F28DF806208DF807100179D7
:103DA0008DF80810017A8DF80910C069C11700EB71
:103DB00011610A0A8DF80A208DF80B0000F00EFE42
:103DC0000C220021684600F0A7FD00F0F3FD0EBDB7
:103DD000D011002038B50C46054600F0FFFD0AA0C2
:103DE00004F6FF710068009015B1012D04D007E0C2
:103DF00001220DF1010001E00122684600F08CFD76
:103E000000F0D8FD38BD000000FF000038B50446C2
:103E10001248134B0068B0FBF3F04FF47A73584329
:103E200000906068B0F5827F0DD10B4600920022B1
:103E30008021204600F016F870B1606D40F020003F
:103E40006065032038BD009830B1401E00902068A6
:103E50008068C0430006F6D5002038BD4800002029
:103E600000366E012DE9F8431E4691468846044609
:103E7000089DFDF755FC401B351AFDF751FC074620
:103E800025480068C0F3CB30684338E0701C37D059
:103E9000FDF746FCC01BA84203D215B1009860B3E1
:103EA0002CE02068416821F0E00141606068B0F5D5
:103EB000827F0BD1A068B0F5004F02D0B0F5806FC3
:103EC00004D12068016821F040010160A06AB0F5CA
:103ED000005F09D12068016821F400510160206869
:103EE000016841F400510160012084F85100002074
:103EF00084F850000320BDE8F8830025401E0090A0
:103F00002068816838EA010004D000214945BDD10C
:103F10000020F0E70121F9E7480000207047000089
:103F20002DE9FC4726A20646D2E90002CDE90002AF
:103F30000824C81701EB1060C0F307250846C7B274
:103F4000DFF884802AE0012E01D036B10CE08DF834
:103F500003508DF80470012004E08DF803508DF8B3
:103F6000047000208DF806004FF47A794B46082241
:103F700069461648FEF7E6FD4B46042212491348EF
:103F8000FEF768FD98F80010FA2903D198F80100AF
:103F900021280CD014210C48FCF768F9641ED2D2F9
:103FA0000BA000F091FD4FF0FF30BDE8FC8714211D
:103FB0000548FCF75BF9002CF2DB0120F5E7000077
:103FC000FD0521FFFF0301FF2215002048110020FD
:103FD00053565F6F7065726174652066616C6965C8
:103FE00064202121210D0A00FDF7D4BB30B593B028
:103FF00030216846FCF73AF914210CA8FCF736F991
:104000001F480025016841F080510160006800F000
:10401000805011901B48016821F4404141F4004157
:1040200001600068022400F44040119009200090D3
:104030004FF4803001900120CDE905048005079000
:1040400019200890A820CDE9090404200B906846A7
:10405000FDF726FD08B172B6FEE70CA90F2081E836
:1040600031004FF48050CDE90F0502210CA8FDF777
:104070002BFC002801D072B6FEE713B030BD000063
:1040800040380240007000400248016841F470016D
:104090000160704788ED00E00148FEF790B900002C
:1040A000BC100020F0B502681D4B1E4C9F031E4D36
:1040B0001E4E984207D0B84205D0A04203D0A84275
:1040C00001D0B04204D122F0700C4A6842EA0C02DE
:1040D000984210D0B8420ED0A0420CD0A8420AD0CC
:1040E000B04208D0124CA04205D0124CA04202D0DF
:1040F000114CA04203D122F44074CA6822434C6997
:1041000022F08002224302608A68C2620A688262E8
:10411000984201D10969016301214161F0BD0000AC
:10412000000001400004004000080040000C004076
:1041300000400140004401400048014010B584683F
:1041400042EA032224F47F440A432243826010BDE2
:10415000826822F070020A4342F0070181607047D2
:1041600010B5036A046A24F001040462846924F02F
:10417000F00444EA021423F00A020A438461026252
:1041800010BD10B5036A23F0100303628369046A4B
:1041900023F4704343EA023224F0A00343EA0111FE
:1041A0008261016210BD10B5806B0021C185C184A0
:1041B000FEF716FA10BD70B5846B2068406994F85C
:1041C0003D10C0F3C0100025212904D118B1E584A9
:1041D000204600F08AF82068406994F83E10C0F349
:1041E0008010222904D118B1E585204600F056F848
:1041F000206C40F0100020642046FEF7F1F970BDFD
:1042000010B50146806B09680968C9052FD40021E3
:10421000C18501680C3151E8002F22F4807241E819
:104220000023002BF5D10168143151E8002F22F052
:10423000010241E80023002BF5D10168143151E857
:10424000002F22F0400241E80023002BF5D120216D
:1042500080F83E10016B012909D101680C3151E849
:10426000002F22F0100241E80023002BF5D1016B52
:10427000012902D0FEF763FC10BD818DFEF777F9AE
:1042800010BD10B5806B016B012902D0FEF758FC00
:1042900010BD818D4908FEF76AF910BD01680C3127
:1042A00051E8002F22F4907241E80023002BF5D151
:1042B0000168143151E8002F22F0010241E8002387
:1042C000002BF5D1016B012909D101680C3151E8AE
:1042D000002F22F0100241E80023002BF5D120210D
:1042E00080F83E1000210163704701680C3151E8ED
:1042F000002F22F0C00241E80023002BF5D120213D
:1043000080F83D10704708B590F83E10222901D082
:10431000022008BD82684FF480539A4201D101699E
:1043200021B1816A9A421BD04AB10AE00268816ACF
:104330005268C2F308020A80816A891C08E0026997
:1043400072B10268526802F07F020A70816A491CE9
:104350008162C18D491E0904090CC18503D019E091
:1043600002685268F1E70168CA6822F02002CA6058
:104370000168CA6822F48072CA6001684A6922F042
:1043800001024A61202180F83E10016B012903D00F
:10439000FEF7D5FB002008BD0021016301680C3148
:1043A00051E8002F22F0100241E80023002BF5D144
:1043B00001680A68D20602D50A6849680091818DB1
:1043C000FEF7D5F8E6E7000070B50446006801691D
:1043D000E26821F44051114301612169A068E2695A
:1043E00008436169114308432168CA6849F20C63B4
:1043F0009A430243CA6020684169A26921F440716E
:104400001143416131492068884202D030498842D5
:1044100002D1FDF703FB01E0FDF7F0FAE2690023AA
:10442000192164253226B2F5004F626828D0A0FB1E
:104430000101930F9200FBF7C9FE0146B0FBF5F0B6
:104440006FF01802504301EB800006EB0010B0FB48
:10445000F5F000F0F002B1FBF5F002EB0012B1FB59
:10446000F5F06FF01803584301EB800006EB0010E5
:10447000B0FBF5F000F00F0021681044886070BDBB
:10448000A0FB010192185B41FBF7A0FE0146B0FBC7
:10449000F5F00201B1FBF5F06FF01803584301EBA2
:1044A000800006EBC000B0FBF5F000F0F80002EB76
:1044B0004002B1FBF5F0584301EB800006EBC00071
:1044C000B0FBF5F000F00700D6E700000010014057
:1044D0000014014038B581628285002513460446E8
:1044E0000564222084F83E00A26B1B48D063A26BB7
:1044F0001A481064A26B1A48D064A06B0A4605657E
:104500002168A06B091DFCF7CBFF2068016840689B
:10451000009084F83C5020680C3050E8001F41F4B3
:10452000807140E80012002AF5D12068143050E86C
:10453000001F41F0010140E80012002AF5D1206877
:10454000143050E8001F41F0400140E80012002AFA
:10455000F5D1002038BD0000014200088342000868
:10456000B74100082DE9F041984617460E4604462B
:10457000069D27E0681C25D02DB1FDF7D1F8A0EBF2
:104580000800A8421ED920680C3050E8001F21F412
:10459000D07140E80012002AF5D12068143050E8AC
:1045A000001F21F0010140E80012002AF5D120206F
:1045B00084F83D0084F83E00002084F83C0003208D
:1045C000BDE8F0812068006836EA000004D00020D1
:1045D000B842CFD00020F3E70120F9E738B51948F9
:1045E00000680168C943C90620D40168406800908A
:1045F0001448FDF7BDFF144800684068134C80B2B2
:10460000C0F5AF7081B221801E2903D21048FBF79C
:104610002DFE0BE00A460E490E48FBF70EFE2188E0
:104620000B48FBF723FE0C49012008700548FDF7F5
:10463000DDFFBDE838404FF4AF7205490148FEF791
:1046400069BA000004110020EC15002026000020AB
:104650000212002092130020240000200148FDF7E0
:10466000C5BF0000481100200148FDF7BFBF000092
:104670008C110020FEE7000010B500F04BF8014659
:1046800008A000F021FA00F0C3F801460AA000F0EB
:104690001BFA0124204600F017F8641C112CF9DBEA
:1046A00010BD000057323551585820496E697420AA
:1046B0003A25640A00000000573235515858204905
:1046C00044203A25640A000070B5040300F086F91E
:1046D00000F01AF90E4D002210212846FDF71AF8B5
:1046E000202000F0FBF8C4F3074000F0F7F8C4F313
:1046F000072000F0F3F8E0B200F0F0F801221021FA
:104700002846FDF707F8BDE8704000F0FDB800004E
:104710000000024010B5104C002210212046FCF78A
:10472000F9FFFF2000F0DAF8012210212046FCF703
:10473000F1FF00F06DF8094C208000F03DF860605A
:1047400004F1080000F0A2F821884FF46F4088437C
:1047500001D04FF0FF3010BD0000024014000020D7
:104760002DE9F041134F15460C4606460022102154
:104770003846FCF7CFFF032000F0B0F8C4F3074041
:1047800000F0ACF8C4F3072000F0A8F8E0B200F0A5
:10479000A5F8002405E0FF2000F0A0F83055641CC7
:1047A000A4B2AC42F7D33846BDE8F0410122102153
:1047B000FCF7B0BF00000240F8B50024134E2246BB
:1047C000102130460094FCF7A5FF5A2000F086F82F
:1047D000002000F083F8002000F080F8842000F032
:1047E0007DF8002000F07AF86D46FF2000F076F8A2
:1047F0002855641C042CF8D3012210213046FCF704
:1048000089FF0098401CC008F8BD0000000002406D
:1048100070B5114D0024224610212846FCF77AFF7E
:10482000902000F05BF8002000F058F8002000F025
:1048300055F8002000F052F8FF2000F04FF844EA4D
:104840000024FF2000F04AF80443012210212846EA
:10485000FCF760FF204670BD0000024070B50A4DB5
:10486000002210212846FCF755FF052000F036F8FD
:10487000FF2000F033F80446012210212846FCF7FF
:1048800049FF204670BD00000000024070B5124E86
:1048900005460024224610213046FCF73BFF4B2002
:1048A00000F01CF8002000F019F8002000F016F8C5
:1048B000002000F013F8002000F010F8FF2000F0B6
:1048C0000DF82855641C082CF8DB3046BDE8704014
:1048D00001221021FCF71EBF0000024001B582B08A
:1048E00000208DF804000A200090012301AA02A9EB
:1048F0000448FDF72FFB10B1FF208DF804009DF850
:1049000004000EBD641000202DE91040FFF7A6FF43
:10491000C007FBD110BD00002DE9F05FC1F30B060D
:10492000DFF88C800F0BC6F5805489468246154609
:10493000A24200D8144639038B464FF480524046B9
:10494000FFF70EFF002006E0321818F80210FF29CA
:1049500003D1401C80B2A042F6D3A04222D23846F6
:10496000FFF7B2FE002006E01AF800208319401C71
:1049700008F8032080B2A042F6D359464FF4805283
:104980004FEA080000F03EF8A5420FD0281BA244D1
:10499000A144002685B24FF480547F1CA542CAD89A
:1049A0002C46C8E7224649465046EBE7BDE8F09F53
:1049B0005800002010B5084C002210212046FCF7BA
:1049C000A9FE0420FFF78AFF20460122BDE810401F
:1049D0001021FCF79FBE00000000024010B5084CFB
:1049E000002210212046FCF795FE0620FFF776FFF7
:1049F00020460122BDE810401021FCF78BBE0000CC
:104A0000000002402DE9F0410746C8B2C0F58074AD
:104A10000E461546A24200D814464FF4807822462E
:104A20003146384600F00EF8A54208D0281B27442E
:104A3000264485B24446A542F1D82C46EFE7BDE8AE
:104A4000F08100002DE9F04115460C460646FFF7BF
:104A5000C5FF134F002210213846FCF75BFE0220F1
:104A6000FFF73CFFC4F30740FFF738FFC4F307200C
:104A7000FFF734FFE0B2FFF731FF002404E0305DC0
:104A8000FFF72CFF641CA4B2AC42F8D30122102122
:104A90003846FCF73FFEBDE8F041FFF735BF0000A8
:104AA0000000024070B50C460546FFF797FF054829
:104AB000022200EBC4012846FFF72EFFFFF77AFF22
:104AC000012070BDF80F01000FB4054B10B503A90C
:104AD000044A029800F072F910BC5DF814FB000063
:104AE000915600084C0000200FB4084B10B504A9E3
:104AF00002AA039800F062F9044602A9002000F01F
:104B0000F4FC204610BC5DF814FB0000EB540008D8
:104B10000907090E002804DB00F1E02080F80014EA
:104B2000704700F00F0000F1E02080F8141D70477E
:104B300030B528B1144C031F002021680A4605E057
:104B4000084630BD9A4203D810465268002AF9D16F
:104B5000002800D041680BD00468A3EB0005A542F3
:104B600004D11B681C440346046002E0436000E07B
:104B700023603AB11C68D51AA54203D115682C44AC
:104B80001C6052685A6030BD5000002000000000D8
:104B900000B583B09FED060B0A4601468DED000B74
:104BA0006846FBF72EFF9DED000B03B000BD000033
:104BB00000000000000000002DE9F04782460F4C85
:104BC00010480D4E0E4F001B4FF0000820F0070557
:104BD0004FF0010900221146504600F0A3FD0028C5
:104BE00002D1306810B10020BDE8F0873C60C4E914
:104BF0000058C6F80090EDE754000020541600203D
:104C0000500000205026002002E008C8121F08C1F2
:104C1000002AFAD170477047002001E001C1121F3D
:104C2000002AFBD1704700002DE9FF5F82B0002110
:104C3000DDE90430020DDDF840B0034318D044F63E
:104C40001050A2F2FF3242431514119801281FD0D0
:104C5000A5EB0B00401C5FEA000A4FF000064E4F28
:104C6000DFF83891B046504615D5CAF1000413E07C
:104C7000119801244AA3012801D16FEA0B0102987F
:104C8000119AC0E90031C0E9024206B0BDE8F09FC8
:104C9000CBF10000DFE704460021404A491842EB0F
:104CA0000450CDE9001012E0E00707D032463B4641
:104CB00040464946FBF74DFD8046894632463B4615
:104CC00010461946FBF745FD06460F466410002CBA
:104CD000EAD1DDE90401DDE90023BAF1000F06DACB
:104CE000FBF737FD42464B46FBF733FD05E0FBF78C
:104CF00018FF42464B46FBF714FF04460E460022BF
:104D0000284BFBF7E3FD03D84FF0FF30014607E0E7
:104D10000022254B20463146FBF774FCFBF77CFF55
:104D2000102409E0002C0ADB0A220023FBF74EFACC
:104D3000039B30321A55641E50EA0102F2D1641C02
:104D4000039AC4F111031444119A012A03D00122D9
:104D500008430DD10AE0084304D000204FF0110BA6
:104D6000119072E7A3EB0B056D1E0DE05B4504DDB2
:104D70004FF0000205F1010504E003DA4FF00002F4
:104D8000A5F10105002AECD002981199C0E9023181
:104D9000C0E9004579E70000000014400000F03F42
:104DA000300000000000F0430000E03F30380A28E7
:104DB00001D2012070470020704700002DE9FF4F0D
:104DC00095B09B468946064600250FE2252877D1F7
:104DD00000242746F84A0121059400E0044316F810
:104DE000013F203B01FA03F01042F7D130782A2826
:104DF00011D06FF02F033078A0F13002092A16D8B5
:104E0000059A44F0020402EB820203EB42021044D2
:104E1000761C0590EFE759F8042B0592002A03DA77
:104E2000504244F40054059044F00204761C30785B
:104E30002E2816D116F8010F44F004042A280DD0AC
:104E40006FF02F023078A0F13003092B09D807EB5F
:104E5000870302EB4303C718761CF3E759F8047B7A
:104E6000761C30786C280FD006DC4C2817D06828C8
:104E70000DD06A2814D104E0742810D07A280FD1FC
:104E80000DE044F400140AE044F4801401E044F41A
:104E900040147278824202D104F58014761C761C8C
:104EA000307866280BD013DC582877D009DC00282E
:104EB00075D04528F6D04628F4D047281AD19DE170
:104EC00018E0632835D0642879D0652812D195E19F
:104ED000702873D008DC6728F1D069286FD06E285D
:104EE0000DD06F2806D1B5E073282CD0752875D069
:104EF000782874D05A46179990476D1C75E1C4F311
:104F00000250022809D003280DD0D9F80010042837
:104F10000DD00D6009F1040967E1D9F80010EA1716
:104F2000C1E90052F6E7D9F800100D80F2E70D70E4
:104F3000F0E719F8041B8DF8001000208DF801002F
:104F4000EA46012003E059F804AB4FF0FF30610757
:104F50004FF0000102D40DE008F101018846B9428A
:104F60000FDA8045F8DB1AF808100029F4D108E0C0
:104F700008F1010188468142FADB1AF8081000297D
:104F8000F6D105985B46A0EB080721463846179AEC
:104F900000F094FA284400EB080507E04DE029E111
:104FA0000DE01AF8010B5A4617999047B8F101081D
:104FB000F7D25B4621463846179A13E142E00A22AF
:104FC0000092C4F302524FF0000A022A08D059F8A6
:104FD00004CB032A4FEAEC710AD00DE029E02AE065
:104FE00009F1070121F00702F2E802C1914609E048
:104FF0000FFA8CFC4FEAEC71042A03D14FFA8CFCB7
:105000004FEAEC71002907DA0A460021DCF1000CB6
:1050100061EB02012D2202E0220504D52B228DF83E
:105020000420012203E0E20701D02022F7E79046A6
:1050300059E00A2102E010220DE010214FF0000A91
:1050400000910BE010224FF0000A44F004040827FE
:10505000009203E008224FF0000A0092C4F30252CB
:10506000022A05D059F804CB0021032A08D009E010
:1050700009F1070121F00702F2E802C1914605E0BB
:105080001FFA8CFC042A01D10CF0FF0C4FF0000831
:10509000220728D5702806D0009B83F0100353EA1E
:1050A0000A0305D00EE040228DF80420012208E01A
:1050B0005CEA010206D030228DF804208DF805004C
:1050C00002229046009B83F0080353EA0A030AD1A8
:1050D0005CEA010201D1620705D530228DF8042077
:1050E0004FF001087F1E582804D034A003900EA86A
:1050F00002900DE036A0F9E753466046009AFBF7B0
:1051000065F884460398825C0298401E0290027003
:105110005CEA0100F0D1029806A9081A00F1200A01
:10512000600702D524F4803400E00127574502DDF2
:10513000A7EB0A0000E0002000EB0A0100900598B0
:105140004144401A0590E00306D45B462146179A75
:10515000059800F0B3F90544002706E001A85A4677
:10516000C05D179990476D1C7F1C4745F6DBE00337
:105170000CD55B462146179A059800F09FF9054427
:1051800004E030205A46179990476D1C0099481E3C
:1051900000900029F5DC08E0029802995A46007850
:1051A000491C0291179990476D1CBAF10001AAF1B0
:1051B000010AF1DC65E100000928010030313233D9
:1051C0003435363738396162636465660000000043
:1051D000303132333435363738394142434445462D
:1051E0000000000000F058F90544761C30780028D3
:1051F0007FF4ECAD19B02846BDE8F08F620700D40B
:10520000062709F1070222F0070CFCE80223E14619
:1052100003F000485FEA080C02D00FF2702C0DE09A
:105220005FEA045C02D50FF2682C07E05FEAC47CF9
:1052300002D00FF2602C01E0AFF2700C4FF0FF389B
:1052400023F00043CDF850C065280CD006DC45287B
:1052500009D046281DD047283DD13DE0662818D00A
:1052600067287ED138E00021112F01DB112000E0FA
:10527000781CCDE9000106A90EA8FFF7D5FCDDE9F1
:105280000F010E9A03910021009207F1010A049187
:105290004DE04FF000400097CDE9011006A90EA89F
:1052A000FFF7C2FCDDE90F0203920E9B1199002269
:1052B000DDF80CA00093049211B9791C00EB010AEF
:1052C000B7EB0A0004D4C0F1FF3007F1010A0490E3
:1052D000AAEB0700019044E0012F00DA012700212A
:1052E000112F01DD112000E03846CDE9000106A9AB
:1052F0000EA8FFF799FCDDE90F010E9A039100213A
:1053000004910092BA4621070CD40399514500DA62
:105310008A46BAF1010F05DD009AAAF10101515C3C
:10532000302908D0B84202DA10F1040F06DA012160
:10533000CDE9011015E0AAF10101E9E7002805DC3B
:10534000049901440491AAEB000102E0411C51457B
:1053500000DD8A460499401A401C01904FF000403D
:105360000290200704D40198504501DBCDF8048059
:1053700000208DF84F0002980DF14F07B0F1004F5B
:1053800025D02B200E9002984FF0020800280CDA4E
:10539000404202902D200E9007E00A210298FBF770
:1053A000ADFA3031029007F8011DB8F10001A8F103
:1053B0000108F2DC02980028EFD1791E0E980870DF
:1053C000307800F0200040F0450007F8020D12A8E8
:1053D000C01B00F107081498007800B1012000EB11
:1053E0000A01019801EBE07105984144401A401E02
:1053F0000590E00306D45B462146179A059800F015
:105400005DF805441498007818B15A4617999047EA
:105410006D1CE00324D55B462146179A059800F0E1
:105420004DF805441CE00498002807DBDDE9030182
:10543000884203DD0098405C179901E017993020FD
:105440005A469047049805F10105401C04900198C4
:10545000401E019004D12E205A46179990476D1C8A
:10546000BAF10001AAF1010ADDDC05E017F8010B31
:105470005A46179990476D1CB8F10001A8F1010830
:10548000F4DC5B462146179A0598ABE62D00000038
:105490002B000000200000002DE9F041044600250B
:1054A0001E461746880404D405E039462020B0473C
:1054B0006D1C641EF9D52846BDE8F0812DE9F04148
:1054C000044600251E469046C80301D5302700E05B
:1054D0002027880404D505E041463846B0476D1CB6
:1054E000641EF9D52846BDE8F0810A68531C0B609C
:1054F0001070704710B530B1036823B1D0E90121B5
:10550000914201D204E0002010BD491C816020B10D
:10551000914202D25C5C202CF7D99142F4D1491E11
:10552000816010BD70B504460F4E19E0A089256852
:10553000C0050AD4A06820B1FFF7F4FFA089C00518
:1055400003D4206908B171688847A089800503D415
:10555000206A08B1716888477168204688472C46E0
:10556000002CE3D170BD000008000020002200F0F4
:105570009BB810B5016828208847040002D0282174
:10558000FAF774FE204610BD0022114600F06EB8F6
:105590002DE9F04788B00F4604469A4616461C216E
:1055A0006846FAF763FE2F480025002C0560456029
:1055B00055D08146E7B3CDE900470295D9E90212FB
:1055C000D9F810000491CDE9052009F10800FFF792
:1055D000D0FF5FEA00082BD000986F4608B1029810
:1055E00008B100270BE00198042808D903221EA166
:1055F0000098FAF75BFE10B90298C01C029038467A
:10560000FFF778FF0146404600F07EFB68B1BAF133
:10561000000F13D06846FFF76DFFDDE901018142FD
:1056200003D202990098405C40B14046FFF77AFFF0
:10563000DDE9011088420AD205460BE01EB102994D
:10564000009808443060404608B0BDE8F087081E66
:1056500000D0451E0EB160193060C9E90045002038
:10566000F2E7000000000020EFBBBF0070B5154658
:105670000E46040009D0FAF704FE411C2B463246C0
:105680002046BDE87040FFF783BF002070BD0000DA
:1056900013B54FF6FF73012269460248FDF752FA2F
:1056A00000981CBD8C1100202DE9F0418846A8B35C
:1056B000B8F1000F33D084680AB90AE024686CB3EB
:1056C000216A59B34046FAF7E3FD0028F6D120E0FD
:1056D00024681CB3266A5FEA0805F9D0002EF7D0CB
:1056E000B54218D002E098B16D1C761C2878FAF704
:1056F0009EFD07463078FAF79AFD87422878F2D067
:10570000FAF795FD05463078FAF791FD8542DFD12D
:1057100024B1206A10B12046BDE8F081FFE70020E7
:10572000FAE700002DE9F0410B3020F00706104D9C
:1057300019E02068B04215D3B0420AD9871B201D5A
:10574000D4F80480FAF779FDA019C0E90078286040
:1057500004E060682860201DFAF76FFD201D2660B8
:10576000BDE8F081251D2C68002CE2D10020F7E770
:105770005000002008B5FCF715F8FEF737FCFDF7E0
:105780003DFA50480024016841F48001016000683E
:10579000224600F48000009021463A20FCF762F88F
:1057A0003A20FCF751F8494D47480C2628604FF441
:1057B0001650C5E90104EC60C5E90446AC61284611
:1057C000EC61FDF747F808B172B6FEE73F48404983
:1057D00044304FF4E1370160C0E90174C460C0E9AE
:1057E00004468461C461FDF735F808B172B6FEE77E
:1057F0003648384988300160C0E90174C460C0E9A6
:1058000004468461C461FDF725F808B172B6FEE76D
:10581000FDF77AFAFDF756FA4FF47A70FBF778FE47
:10582000FEF72AFFFEF7CCF9FBF732FBFDF7D4FEBB
:10583000FBF73EFC2868C16841F01001C1602349B4
:105840004FF4C872FE312148FDF764F91F48224920
:10585000AC3801600421416040F6FF718160FBF7C4
:1058600065FF08B172B6FEE718484838FCF702FD3C
:10587000164E1A4DCC362878012804D1FDF778FA57
:10588000FEF76AFA2C70706900EBC00101EB0011A1
:10589000A888B0EB410F0EDBAC80FDF729FCFEF7CA
:1058A00043FAE968F069491E884201D3F461E2E7EE
:1058B000401CF061DFE7401CA8800120FBF728FEB8
:1058C000D9E70000303802400010014004110020E8
:1058D000004400400014014000300040240000203B
:1058E0002DE9F04107460025C8680C462E46B0F564
:1058F0007A7F5BD2401CE0602168A068095C5B296C
:1059000054D1401CA0602046FFF7F4FD4CB1D4E90F
:105910000110884203D22268125C5D2A33D088428B
:1059200003D3A068401EA06040E0401E04F11008B0
:10593000A0604046FFF71DFE98B30DB3306046608F
:105940000646A068401CA0602046FFF7D3FD214614
:10595000304600F0D9F930B32046FFF7CBFD14B341
:10596000D4E90110884203D22168095C2C29E0D0D7
:105970006268904217D22168085C5D2813D102E06A
:1059800005462E46DDE7E068401EE06005B16E602A
:105990002020C7E90250A068401CA0600120BDE89B
:1059A000F081FFE715B12846FFF7BCFD0020F6E7C0
:1059B000034610B500200246995CA1F13004092C81
:1059C00001D830380AE0A1F14104052C01D837385C
:1059D00004E0A1F16104052C08D857380844032AD3
:1059E00000D20001521C042AE6D310BD002010BDD5
:1059F000F0B54FF000022DED028B91B00C00054682
:105A00004FF02E03114610923DD02068D8B36E4659
:105A100027E027683844085C34281BD00ADCA0F152
:105A20002B07092F23D2DFE807F0152215172215BF
:105A30001515150038280DD006DC35280AD0362873
:105A400008D0372813D105E0392803D0452801D0E4
:105A500065280CD1705400E07354491C3F2906D2CC
:105A60002CB1A068D4F804C047186745D1D372544C
:105A700010A93046FFF78CF81098B0EE408AF0EE8F
:105A8000608A864204D1002011B0BDEC028BF0BDCB
:105A90009FED130B85ED068B53EC102B51EC180B7F
:105AA000FAF714FF02D86FF000400FE09FED0E0BE5
:105AB00051EC180B53EC102BFAF7F0FE02D84FF014
:105AC000004003E051EC180BFAF7B5FE68610820BE
:105AD000E8601099A068891B0844A0600120D3E702
